:020000040800F2
:10000000001600209D01000843410008B931000896
:100010001F3C0008410E0008594D00080000000078
:10002000000000000000000000000000494200083D
:100030001510000800000000C1410008214600081A
:10004000B7010008B7010008B7010008B7010008B0
:10005000B7010008B7010008B7010008B7010008A0
:10006000B7010008B7010008B7010008B701000890
:10007000B7010008B7010008B7010008B701000880
:10008000B7010008B7010008B7010008B701000870
:10009000B7010008B7010008B7010008B701000860
:1000A000B7010008B7010008B7010008B701000850
:1000B000B7010008B7010008B7010008B701000840
:1000C000B7010008B7010008B7010008B701000830
:1000D000B7010008A54C0008B14C0008B7010008A2
:1000E000B7010008B7010008B7010008B701000810
:1000F000B7010008B7010008B7010008B701000800
:10010000B7010008B7010008B7010008B7010008EF
:10011000B7010008B701000835460008B70100081C
:10012000B7010008C90E0008B7010008B7010008B0
:10013000ED0E0008B7010008B7010008B70100087C
:10014000B7010008B7010008B7010008B7010008AF
:10015000B7010008B7010008B7010008054D000805
:10016000B7010008B7010008B7010008B70100088F
:10017000B7010008B7010008B7010008000000003F
:10018000B7010008B7010008DFF80CD000F01CFD33
:1001900000480047A5AB000800160020064880472D
:1001A00006480047FEE7FEE7FEE7FEE7FEE7FEE75C
:1001B000FEE7FEE7FEE7FEE72546000889010008A6
:1001C0009FED1A1AF5EE000A40EE010ABDEEE00AB4
:1001D000F5EEC00A10EE100AF1EE10FA38BF401E1C
:1001E00000EE100A1349F7EE001AB8EEC00A30EE1E
:1001F000C00ADFED0F0A20EE200AFCEEC00A10EE66
:10020000900AC0F3080000EE900A01EB8000F8EEBF
:10021000600A90ED011A70EE600A90ED000A71EE2E
:10022000E01A21EE800A00EE810A704783F9223E2F
:100230000000004490E30008B5EEC00AF1EE10FAA9
:1002400007D2DFED1E0AB4EEE00AF1EE10FAA8BF05
:100250007047DFED1B0AB5EEC00A60EE200ABDEE66
:10026000E01A11EE100AF1EE10FA38BF401E00EE4F
:10027000100A1549F7EE001AB8EEC00A30EEC00AAF
:10028000DFED100A60EE200ABCEEE00A10EE100A64
:10029000C0F3080000EE100A01EB8000B8EE400A3F
:1002A00090ED011A70EEC00A90ED000A71EEE01AAE
:1002B00021EE800A00EE810A70470000CD024CB4A6
:1002C00083F9223E0000004490E300082DE9F04F3E
:1002D00082B0466853680193058847884B880020A0
:1002E00000900888874201BFB2F800C06545528877
:1002F00093421EBF6FF0020002B0BDE8F08F9FED89
:10030000412A4FEA970EC7F3400B00BFDDE9000218
:1003100002EB800A4A6898464FF00009B0EE420AA4
:10032000B4465FEA0E0025D092ED001ADCED001A0B
:1003300002EB8302DCED010A01EE810A92ED001A64
:1003400002EB8302401ED2ED001A02EB830200EEA4
:10035000810A9CED021ADCED030A00040CF1100C7A
:10036000000C01EE210A92ED001A02EB830200EE6E
:10037000810AD9D117F0030026D0ACF10404A2EB16
:10038000830210F0010F08D002EB8302D4ED010AC2
:1003900092ED001A241D00EE810A5FEA0B0013D0D3
:1003A00002EB830CD4ED010A9CED001A02EBC302B0
:1003B000401E00EE810AD4ED020A92ED001A04F10B
:1003C000080400EE810AEBD109F10100AAEC010A50
:1003D0001FFA80F9486800EB8902A8F101001FFAB2
:1003E00080F8B8F1000F99D1009806EB8706184401
:1003F00080B20090681E05042D0C87D102B0002049
:10040000BDE8F08F000000002DE9F05F05460020F8
:1004100092469B4688460646814640241BE0284675
:1004200041464746224600F0B0FA53465A46C01AA3
:10043000914110D311461846224600F097FA2D1A22
:1004400067EB01084F4622460120002100F08EFA9A
:1004500017EB00094E41201EA4F10104DFDC4846E1
:1004600031462A464346BDE8F09F2DE9F04100247D
:10047000061B254671F1000605DA01240027D0EBA2
:10048000070067EB0101161E73F1000605DA00276D
:10049000D2EB0702012567EB0303FFF7B5FF8646A2
:1004A0000E4617469C46AC4204D00025D0EB050E04
:1004B00065EB010624B10020D2EB000760EB030CD2
:1004C000704631463A466346BDE8F08140EA010392
:1004D0009B0703D009E008C9121F08C0042AFAD2FA
:1004E00003E011F8013B00F8013B521EF9D27047BE
:1004F000D2B201E000F8012B491EFBD27047002266
:10050000F6E710B513460A4604461946FFF7F0FF12
:10051000204610BD30B504460020034600E05B1CB9
:10052000934203D2E05CCD5C401BF8D030BD2DE996
:10053000FE4F804681EA0300C00F0C46009021F078
:10054000004123F00045B8EB0200A94105D2404626
:10055000214690461C460B46024623F000401043BD
:1005600047D0270DC7F30A00C3F30A510290401A7F
:10057000019040286BDAC3F3130040F4801B00980D
:10058000924620B10023D2EB030A63EB0B0B0198D8
:100590005946C0F14002504600F0E8F906460D46C3
:1005A00050465946019A00F000FA10EB08006141EC
:1005B000002487EA115284EAE7731A4340D0009A74
:1005C00062B3019A012A4FEA075215DC001B61EB66
:1005D00002014FF0004202EA0752CDE90042001C3E
:1005E00041F5801132462B4600F037FA03B0BDE8E2
:1005F000F08F40462146F9E7001B61EB0201001C29
:1006000041F5801300185B412018A2F5001747EB55
:10061000030140EAD570B6196D4111E06D084FEA4B
:10062000360645EAC0754FEA0752001B61EB02012E
:10063000001C41F5801149084FEA30000019514172
:1006400032462B4603B0BDE8F04F00F0F7B90098F2
:10065000012240000023D0EB020263EBE07300981C
:1006600021464FEAE074B8EB000061EB0401E9E7D2
:1006700083F000435BE781F0004158E72DE9FE4F2E
:1006800081EA030404F0004421F0004100944FF09B
:10069000000B23F0004350EA01045ED052EA030449
:1006A0005BD0C3F30A54C1F30A552C44A4F2F334CB
:1006B0000194A0FB0254C1F3130141F48011C3F370
:1006C000130343F4801301FB024400FB034E840A2E
:1006D000970A44EA815447EA8357A4FB07680295C6
:1006E0008D0A05FB07854FEA932C04FB0C54270564
:1006F000029D4FEA065847EA1637B5EB08056EEB40
:10070000070C870E920E47EA811742EA8312A7FB75
:100710000201B6EB0B0164EB00042B0D43EA0C3332
:100720005E1844EB1C50DA465146E7FB0201C5F364
:1007300013044FEA0B3343EA14534FEA0432019C8B
:1007400043EA0603A4F10C040294009CCDE900B432
:1007500000F083F903B0BDE8F08F00200146F9E70F
:100760002DE9F04D81EA030404F0004B21F000452F
:1007700014464FF0000A23F0004150EA050220D051
:1007800054EA01021DD0C5F30A570246C5F313030C
:10079000C1F31300C1F30A5640F4801543F48013EB
:1007A000A7EB0608101BD64608F2FD3873EB0500D0
:1007B00002D308F1010801E092185B41B8F1000F83
:1007C00003DA00200146BDE8F08D00204FF48011CF
:1007D000064684460EE0171B73EB050705D3121B74
:1007E00063EB050306434CEA010C49084FEA30006D
:1007F00092185B4150EA0107EDD152EA030012D092
:1008000082EA040083EA0501084305D0101BAB41CE
:1008100006D20122002306E000224FF0004302E04E
:100820006FF0010253101AEB06004CEB085110EB6D
:100830000A0041EB0B01BDE8F04D00F0FFB80EB52A
:10084000C10F80EAE0700844CA07002140F2334338
:100850008DE80E000A460B4600F0FFF803B000BD1D
:100860000EB540F2334102910021CDE900110A4654
:100870000B4600F0F2F803B000BDC1F30A5210B508
:10088000C1F3130140F2FF3341F480119A4201DABF
:10089000002010BD40F233439A42A2F2334203DCFF
:1008A000524200F072F810BD904010BD00F00042BE
:1008B00030F000400AD0C10D01F56071C0F31600A0
:1008C00042EA0151C2084007114370470020014627
:1008D0007047000030B5041E71F1000404DB4FF0D6
:1008E0000044404264EB0101141E73F1000405DB77
:1008F0001C464FF00043524263EB04038B4208BF97
:10090000824230BD30B5041E71F1000404DB4FF0AB
:100910000044404264EB0101141E73F1000405DB46
:100920001C464FF00043524263EB0403994208BF58
:10093000904230BD01F0004330B421F0004150EA54
:10094000010206D00A0DA2F56072C1F31301002A5C
:1009500002DC30BC00207047440F44EAC104C100EF
:10096000E01830BC00EBC25000F031B8202A04DBA4
:10097000203A00FA02F1002070479140C2F12003B2
:1009800020FA03F3194390407047202A04DB203AF1
:1009900021FA02F00021704721FA02F3D040C2F19F
:1009A00020029140084319467047202A06DBCB17E6
:1009B000203A41FA02F043EAE07306E041FA02F31A
:1009C000D040C2F1200291400843194670470029E7
:1009D000A8BF7047401C490008BF20F001007047C5
:1009E00010B4B0FA80FC00FA0CF050EA010404BF25
:1009F00010BC704749B1CCF1200421FA04F411FA7B
:100A00000CF118BF012121430843A3EB0C01CB1DBE
:100A10004FEA00614FEA102042BF002010BC70472F
:100A200000EBC35010440029A4BF10BC7047401C09
:100A3000490008BF20F0010010BC704710B5141E1B
:100A400073F1000408DA401C41F1000192185B4187
:100A50001A4301D120F0010010BD2DE9F04D92465E
:100A60009B4611B1B1FA81F202E0B0FA80F2203275
:100A70009046FFF77BFF04460F4640EA0A0041EA32
:100A80000B0153465A46084313D0114653EA01005E
:100A900019D0C8F140025046FFF777FF05460E46D1
:100AA000504659464246FFF761FF084305D00120F2
:100AB00004E020463946BDE8F08D0020054346EAB3
:100AC000E0762C4337430A986305E40AA0EB08005C
:100AD0000022FD0A44EA47540A3002D500200146AC
:100AE000E9E7010510196941DDE908450019694187
:100AF000BDE8F04DA2E770B521F0004303430CD0F0
:100B0000C1F30A550024D5EB040564EB0403D617A2
:100B1000AD1AB34102DB0020014670BD201841EB45
:100B2000025170BD2DE9F04D00231A461B1A8A416F
:100B300003DB00200146BDE8F08DC1F30A52C1F38A
:100B4000130141F480154FF0000BD10702D10018BA
:100B50006D41521E0027044640F2FF11384601EB5A
:100B6000620A3E468046024600204FF48011FFF79D
:100B70000CFFC2197141BB1846EB0100B4EB030C2A
:100B800075EB000C04D3E41A65EB000517460E461E
:100B9000241908F101006D4180463428E3DDF9197C
:100BA00046EB0600091BA84103D24FF0FF32134663
:100BB00001E0002213461BEB070046EB0A51BDE89B
:100BC000F04DFFF73BBF0000064C074D06E0E06824
:100BD00040F0010394E8070098471034AC42F6D384
:100BE000FFF7D6FA80EE0008A0EE000870B5C1F35A
:100BF0000A5201F000450024C1F3130140F2FF3313
:100C000041F480119A4201DA002070BD40F2334372
:100C10009A42A2F2334203DC5242FFF7B6FE00E0F2
:100C200090402C43F1D0404270BD70B58C1810F844
:100C3000015B15F0070301D110F8013B2A1106D121
:100C400010F8012B03E010F8016B01F8016B5B1E3B
:100C5000F9D12B0705D40023521E0DD401F8013B16
:100C6000FAE710F8013BCB1A921C03E013F8015B82
:100C700001F8015B521EF9D5A142D8D3002070BD06
:100C800010B50146886B026C12F0500F05D0026C53
:100C9000D20626D500F06EFA10BD016C41F4007149
:100CA000016401688A6812F0405F17D1027EAAB918
:100CB000CA6A12F4700F02D08A6852050ED44A68CC
:100CC00022F020024A60016C21F480710164016C01
:100CD000C90403D4016C41F00101016400F048FA39
:100CE00010BD806BC26CBDE810400846104710B5BF
:100CF000806B40210164416C41F00401416400F0CB
:100D000039FA10BD10B5806B00F033FA10BD000049
:100D10004A494A6822F440324A604A6843681A43A2
:100D20004A6001684A6822F480724A6001684A6831
:100D3000036942EA03224A6001684A6822F040726D
:100D40004A6001684A6883681A434A6001688A6891
:100D500022F400628A6001688A68C3681A438A6064
:100D6000816A6FF07062D14214D001688A6822F003
:100D700070628A6001688A68836A1A438A600168BF
:100D80008A6822F040528A6001688A68C36A1A43FE
:100D90008A6009E001688A6822F070628A600168EE
:100DA0008A6822F040528A6001688A6822F0020252
:100DB0008A6001688A68037E42EA43028A6090F88A
:100DC000201089B101684A6842F400624A600168F3
:100DD0004A6822F460424A6001684B68426A521EC7
:100DE00043EA42324A6004E001684A6822F4006241
:100DF0004A600168CA6A22F47002CA620168CB6A5A
:100E0000828B521E43EA0252CA6201688A6822F447
:100E100000728A6001688A6890F8303042EA4322A2
:100E20008A6001688A6822F480628A6001688A6840
:100E3000406942EA8020886070470000002301403A
:100E4000FEE7000070B5049D084C01262670607016
:100E5000A170E2702371657108222146012006F01D
:100E600031FEA4F10901087070BD000035010020B9
:100E70000149012006F002BE2D010020FFF7F8BF56
:100E800010B50B490B4B0024B1F8AE109A1C002989
:100E900004D00120D0701C80D07810BD1988491C66
:100EA00089B219808142F7D91C80D470F4E7000020
:100EB000640A00203E01002002490020A1F8AE0093
:100EC00070470000640A002006480068000508D545
:100ED00005490120487003480830016841F4006169
:100EE000016070470064024013000020064800685B
:100EF000800608D5054901200870034808300168BC
:100F000041F020010160704704640240130000209A
:100F10000168CAB2103A1823B2FBF3F2064B9B5C8D
:100F2000C3656FF30901032A02D9091D816500E039
:100F30008165806D7047000088E3000810B50146A8
:100F400000208A6A8B694FF0C074002B0ED0B3F575
:100F5000005F1AD062B3012A2AD0022A28D0032ABD
:100F600003D1C96AC90100D5012010BD1AB1012AF7
:100F700006D0022AF9D1C96AC901F6D5012010BDEF
:100F8000C96AA142FBD1012010BD52B1012A0AD089
:100F9000022A06D0032AF7D1C96AA142F4D101205E
:100FA00010BD012010BDC96AC901FBD5012010BDCB
:100FB000012010BD30B50468256825F48025256022
:100FC000046863608368402B04D0036899600068FC
:100FD000C26030BD03689A600068C16030BD000027
:100FE0000B480021016041608160C1600161816244
:100FF00040F8501C40F84C1C40F8481C40F8441C79
:10100000C162016341638163C16301647047000091
:10101000F00900207047000078B50024009490F893
:101020003C20012A19D0012280F83C200A680725BB
:10103000092A14D90368DE680A3A02EB4202954095
:10104000AE43DE600A788B680A3A02EB42029340B4
:101050000268D5682B43D36011E0022078BD036895
:101060001E6902EB42029540AE431E610A788B680E
:1010700002EB42029340026815692B4313614A68F0
:101080001F25072A13D203685E6B521E02EB8202F1
:101090009540AE435E630A8893B20A79521E02EB12
:1010A000820293400268556B2B43536328E00D2A5C
:1010B00013D203681E6BD21F02EB82029540AE432F
:1010C0001E630A8893B20A79D21F02EB8202934010
:1010D0000268156B2B43136312E00368DE6A0D3A56
:1010E00002EB82029540AE43DE620A8893B20A792F
:1010F0000D3A02EB820293400268D56A2B43D36219
:10110000174A184B05689D4206D10D68122D03D170
:10111000556845F48005556005689D421BD10B68F4
:10112000102B01D0112B16D1536843F400035360E8
:10113000096810290FD10C490C4A0968B1FBF2F17A
:1011400001EB81014900009102E00099491E0091E4
:1011500000990029F9D180F83C40002078BD0000BA
:1011600000230140002001400000002040420F0009
:1011700070477047704770B504460026002C03D0B6
:10118000206C002510B107E0012070BD204600F062
:101190001CF8656484F83C50206CC00610D4206CA8
:1011A00020F4885040F0020020642046FFF7B0FD94
:1011B0006564206C20F0020040F00100206400E033
:1011C000012684F83C50304670BD7047F8B504469F
:1011D0000023009394F83C00012807D0012084F8F4
:1011E0003C0020688568ED0702D014E00220F8BDBD
:1011F000856845F0010585604648474D0068B0FBAD
:10120000F5F000EB4000009002E00098401E0090D6
:1012100000980028F9D120688568ED0503D5856818
:1012200025F48075856020688568ED0768D0256C99
:1012300040F20166B54345F4807525644068400579
:1012400005D5206C20F4005040F480502064206CC0
:10125000C00404D5606C20F00600606400E06364A4
:1012600084F83C302D4EA36B2D48D863A36B2D48DA
:101270001864A36B2C48D86423686FF022001860B0
:101280002068436843F0806343602068836843F4C8
:1012900080738360206813464C300A46A56B014674
:1012A000284600F012FC70682049C00607D020686C
:1012B00088422DD1816811F0405F1CD028E0206861
:1012C00088420FD01A4A904203D1D1F80423D206A3
:1012D00008D0184A90421BD1D1F8041301F01F0125
:1012E000102915D2816811F0405F11D1816841F059
:1012F000804181600CE0816841F08041816007E0BD
:10130000206C40F010002064606C40F001006064CC
:101310000020F8BD0000002040420F0000230140E3
:10132000810C0008050D0008EF0C000800200140AA
:10133000002101400022014090F82020012A07D01E
:10134000022A05D0416A41F48021416201207047A0
:10135000CA0704D00268936843F0800393608A0749
:1013600004D50268936843F400439360490704D5A9
:101370000068816841F40001816000207047F0B589
:1013800090F820500468A468012D07D0022D05D0E4
:10139000416A41F4802141620120F0BD04F0806582
:1013A00004F00066354301D1E5005BD5C4F3016468
:1013B000022C05D9416A41F4000141620120F0BDCF
:1013C0000125A5401D608B684FF4C0759BB1CE68A8
:1013D00005EB041733434E6843EAC6030668F3512E
:1013E0004FF4C273076803EB04130E69FE50097DC6
:1013F000012909D00DE00E88CB6805EB041743EAFC
:1014000046530668F351EBE70168CE5846F4807600
:10141000CE501179D379567941EA036193791B044F
:1014200043EA062319434FF4C676036806EB041615
:1014300099511178D37841EA0361937852781B046B
:1014400043EA022211434FF4C473026803EB04130E
:10145000D150006805EB0411425842F0010242509D
:101460000020F0BD416A41F4001141620120F0BD4D
:1014700010B590F82020012A07D0022A05D0416A31
:1014800041F480214162012010BD3C4800F500700C
:10149000026842F001020260026822F47C5202609B
:1014A00002684B6A42EA032202600A7D02F01F03CF
:1014B00001229A40C3699343C361A0F50070CB69D0
:1014C000B3B9D0F80C329343C0F80C328C894B6816
:1014D00064F31F434C6900EBC404C4F840320C8928
:1014E0000B6864F31F434C6900EBC404C4F8443236
:1014F000CB69012B16D1D0F80C321343C0F80C3253
:101500000C884B6864F31F434C6900EBC404C4F8B7
:1015100040320C89CB6864F31F434C6900EBC40470
:10152000C4F844328B697BB1D0F804321343C0F85D
:1015300004320B6973B1D0F814321343C0F814327B
:10154000096A01290CD010E0D0F804329343C0F8A6
:101550000432EEE7D0F814329343C0F81432EFE7C8
:10156000D0F81C121143C0F81C12D0F8001221F060
:101570000101C0F80012002010BD0000006400400E
:101580000246002092F82030012B01D0022B04D11A
:1015900021B11068006900F0030070471068C0684E
:1015A00000F00300704730B590F82040012C07D0C0
:1015B000022C05D0416A41F480214162012030BDF6
:1015C00021B104682469A4075FD003E00468E468DB
:1015D000A40754D04FF4D874056804EB01142D59B6
:1015E00005F004059560F5B305682D59ED085560C3
:1015F00005682C5904F00204D4604FF4DA740568CD
:1016000004EB01142D5905F00F05156105682D59DE
:10161000C5F30725956105682C59240C54614FF4D6
:10162000DC72046802EB0112A4581C700468A45810
:10163000240A5C700468A458240C9C700468A258A6
:10164000120EDA704FF4DE72046802EB0112A45835
:101650001C710468A458240A5C710468A458240C02
:101660009C71046800E016E0A258120EDA71B9B15C
:101670000068016941F020010161002030BD416A2C
:1016800041F400114162012030BD416A41F4001172
:101690004162012030BD05682D596D0D1560A7E729
:1016A0000068C16841F02001C160E6E70246002001
:1016B00092F82010012901D002290CD111688A6802
:1016C000520100D501208A68120100D5401C8968AA
:1016D000C90000D5401C704770B50446002C03D0EB
:1016E00094F8200010B104E0012070BD204600F005
:1016F0009DF82068016821F00201016000F020FBE4
:10170000054605260CE000F01BFB401B0A2807D904
:10171000606A40F40030606284F82060012070BD8F
:10172000206840688007EED42068016841F001011C
:10173000016000F005FB05460CE000F001FB401BDA
:101740000A2807D9606A40F40030606284F820609B
:10175000012070BD20684068C007EED0207E0128BF
:101760003FD02068016821F080010160607E01287F
:101770003DD02068016821F040010160A07E012871
:101780003BD02068016821F020010160E07E012843
:1017900039D02068016841F010010160207F0128E4
:1017A00037D02068016821F008010160607F0128BE
:1017B00035D02068016821F004010160D4E90201FC
:1017C0000843D4E90412114308436168491E0843E1
:1017D0002168C86100206062012084F82000002098
:1017E00070BD2068016841F080010160BEE720689B
:1017F000016841F040010160C0E72068016841F0E4
:1018000020010160C2E72068016821F01001016039
:10181000C4E72068016841F008010160C6E720685C
:10182000016841F004010160C8E7000030B587B0ED
:101830000068194988422CD11848016841F0080114
:101840000160016801F008010191016841F008019F
:101850000160006800F00800019010481030016835
:1018600041F000710160006800F0007001900220FA
:101870000290039001240494059009200690084DDD
:1018800002A9284600F058F9029402A9284600F05F
:1018900053F907B030BD000000640040303802400A
:1018A000000C024070B5044694F82000012805D0D1
:1018B000606A40F400206062012070BD022084F85C
:1018C00020002068016821F00101016000F038FA71
:1018D00005460DE000F034FA401B0A2808D9606A7A
:1018E00040F400306062052084F82000012070BDC3
:1018F00020684068C007EDD1606270BD2DE9F041FD
:101900000446A76D00F01CFA054694F83500002641
:10191000022806D08020606584F834600120BDE88C
:10192000F0812068016821F016010160206841699A
:1019300021F080014161206C08B9A06C20B12068C1
:10194000016821F0080101602068016821F00101AF
:1019500001600BE000F0F4F9401B052806D92020B7
:1019600034342062267003206070D8E72068006855
:10197000C007EFD134343F2094F828108840B86075
:101980002670012060700020C9E790F83510022908
:1019900003D08021416501207047052180F8351072
:1019A0000068016821F0010101600020704700001B
:1019B0002DE9F041044600F0C3F905465CB100266C
:1019C00084F83460022084F835002068016821F032
:1019D000010101600DE00120BDE8F08100F0B0F9E7
:1019E000401B052805D920206065032084F83500B8
:1019F000F2E720680068C007F0D121680A68204833
:101A00000240D4E901031843D4E903352B431843BA
:101A100063691843A3691843E3691843236A1843A9
:101A20001043626A042A03D1D4E90B231A431043FA
:101A300008602068406920F00700656A2946054370
:101A4000012704290DD1A06A0543E06A48B1204668
:101A5000FFF774FA28B14020606584F835700120E2
:101A6000BAE7206845612046FFF752FA94F85C20F7
:101A70003F2191408160666584F835700020ABE7B6
:101A80003F8010F070B50446002594F8340001281A
:101A90000CD0012084F8340094F835600020012E29
:101AA00006D084F834000225284670BD022070BD9F
:101AB000022684F8356060652046FFF77BFA2068CF
:101AC000016841F001010160EEE72DE9F0410446B3
:101AD0000025A66D94F8340001280DD0012084F86B
:101AE000340094F835700020012F07D084F83400BA
:101AF00002252846BDE8F0810220FBE7022784F892
:101B0000357060652046FFF755FA94F85C103F2069
:101B10008840B0602068016841F016010160206CC7
:101B200020B12068016841F0080101602068016867
:101B300041F001010160DCE72DE9F84F0022DFF8F8
:101B40009C914FF0010809F1040A03274FF00F0C94
:101B50000AF1040B08FA02F50B682B40AB4272D174
:101B60000C7904F00304012C01D0022C15D18668F5
:101B7000540007FA04FE26EA0E06D1F80CE00EFA2D
:101B800004FE4EEA060EC0F808E04468AC430D7946
:101B9000C5F300159540254345600C79E443A4073F
:101BA00008D0C568540007FA04F6B5438E68A6400D
:101BB0002E43C6600C7904F00304022C11D1D40822
:101BC00000EB8406356A5407E40E0CFA04FE25EA9D
:101BD0000E05D1F810E00EFA04FE4EEA050EC6F826
:101BE00020E00568540007FA04F6B5430E7906F0C4
:101BF0000306A6402E4306604C68E40067D5384CC7
:101C0000256845F480452560246804F480440094E8
:101C1000344C22F003052E19D6F8085894074FEAE1
:101C2000147E0CFA0EF4A5432F4CA04201D10024DF
:101C300024E02E4CA04201D101241FE02C4CA042F4
:101C400002D102241AE042E02A4CA04201D103242E
:101C500014E0294CA04201D104240FE0274CA042FB
:101C600001D105240AE0264CA04201D1062405E05A
:101C7000244CA04201D1072400E0082404FA0EF409
:101C80002C43C6F80848D9F800409C434D68ED0342
:101C900000D51C43C9F80040DAF800409C434D6869
:101CA000AD0300D51C43CAF80040DBF800409C435C
:101CB0004D68ED0200D51C43CBF80040074D0C35B4
:101CC0002C689C434E68B60200D51C432C60521C05
:101CD000102AFFF43FAFBDE8F88F0000003C014040
:101CE000443802400030014000000240000402403D
:101CF00000080240000C02400010024000140240A4
:101D000000180240001C02400069084201D0012076
:101D1000704700207047426921EA02030A4043EA03
:101D2000024181617047002A01D081617047090436
:101D30008161704701480068000C7047002004E092
:101D400001488068704700004401002070B50446D7
:101D5000002C11D021684CF6CC400860216845F277
:101D600055500860D4E9001048602168A068886078
:101D7000FFF7E6FF05460CE0012070BDFFF7E0FF2E
:101D8000401B302805D92068C068800701D0032097
:101D900070BD2068C0688007F0D121684AF6AA208B
:101DA0000860002070BD00684AF6AA21016000208A
:101DB00070470000024881680278114481607047D2
:101DC0004401002010B50948016841F40071016028
:101DD000016841F480610160032000F059F80F2090
:101DE00000F006F800F026F8002010BD003C02408C
:101DF00070B504460D4D4FF47A712878B1FBF0F0C0
:101E00000B490968B1FBF0F000F034FB08B1012088
:101E100070BD102C07D200222146501E00F018F889
:101E20006C60002070BD012070BD000044010020E6
:101E3000000000207047002809DB00F01F0201218C
:101E400091404009800000F1E020C0F80011704787
:101E5000F0B40D460D4B1B68C3F30223C3F1070416
:101E6000042C00D90424191D072901D2002300E005
:101E7000DB1E012606FA04F1491E294099409E40C6
:101E8000761E16403143F0BC03F066B80CED00E05E
:101E900000F00701054A10684FF6FF03184040EABA
:101EA0000120034908431060704700000CED00E07A
:101EB0000000FA052DE9F04704460D46002C13D02A
:101EC000DFF82891D9F80000EFB200F00700A8422F
:101ED0000CD289F80070D9F8000000F00700A84281
:101EE00004D00120BDE8F0870120FBE72068404EC8
:101EF000810712D5400703D5306840F4E0503060C8
:101F00002078000703D5306840F4604030603068C6
:101F1000A16820F0F000084330602078C00731D07D
:101F2000334960680839012808D002280BD00328FB
:101F300009D0096889070BD40120D3E70968890310
:101F400006D40120CEE70968890101D40120C9E740
:101F5000316821F0030101433160FFF7F1FE804653
:101F600041F2883A07E0FFF7EBFEA0EB080050458E
:101F700001D90320B6E73068616800F00C00B0EBCF
:101F8000810FF0D1D9F8000000F00700A84209D96C
:101F900089F80070D9F8000000F00700A84201D0CD
:101FA00001209FE72078400705D53068E16820F4DC
:101FB000E050084330602078000706D5306821697A
:101FC00020F4604040EAC100306000F03FF8316822
:101FD000084AC1F30311515CC8400749086007482B
:101FE0000068FFF705FF00207CE70000003C02408E
:101FF00008380240E8D10008000000204801002015
:1020000001480068704700000000002000B5FFF79D
:10201000F7FF04490968044AC1F38221515CC840B2
:1020200000BD000008380240F8D1000800B5FFF7F5
:10203000E7FF04490968044AC1F34231515CC840D2
:1020400000BD000008380240F8D1000810B517485C
:10205000006810F00C01164816D04310042912D065
:10206000082911D1114C241F216801F03F02216879
:1020700049020AD52068C0F38810A0FB03010023A1
:10208000FEF7C2F909E0184610BD21680023C1F32C
:102090008811A1FB0001FEF7B7F92168C1F30141E6
:1020A000491C4900B0FBF1F010BD000008380240A7
:1020B0000024F4002DE9F84F0446002C13D02078BA
:1020C000DFF8A083C007A8F1040556D008F104008A
:1020D0000168C1F3810101290CD00068C0F38100BF
:1020E000022803D00DE00120BDE8F88FD8F80000E9
:1020F000400206D5286880033FD5606870BB012088
:10210000F2E76068B0F5803F10D0B0F5A02F12D094
:10211000286820F480302860286820F48020286017
:102120006068E0B1FFF70CFE064614E0286840F452
:1021300080302860F4E7286840F480202860286810
:1021400040F480302860EBE7FFF7FAFD801B64283D
:1021500001D90320C8E728688003F5D50DE0FFF713
:10216000EFFD064606E0FFF7EBFD801B642801D972
:102170000320B9E728688003F5D42078BA4F800798
:102180004FF0000948D5B748001D016811F00C0F49
:1021900008D00068C0F38100022813D1D8F80000ED
:1021A00040020FD42868800704D5E068012801D0D8
:1021B000012099E72868216920F0F80040EAC10071
:1021C000286029E0E068B8B101203860FFF7B8FD69
:1021D000064606E0FFF7B4FD801B022801D9032064
:1021E00082E728688007F5D52868216920F0F80083
:1021F00040EAC10028600FE0C7F80090FFF7A0FD9B
:10220000064606E0FFF79CFD801B022801D903204B
:102210006AE728688007F5D42078000729D5DFF819
:1022200044A2924861690AF1700A89B101210160F2
:10223000FFF786FD064606E0FFF782FD801B0228B9
:1022400001D9032050E7DAF800008007F4D510E048
:10225000C0F80090FFF774FD064606E0FFF770FD3A
:10226000801B022801D903203EE7DAF8000080072E
:10227000F4D42078400778D54FF0000A79483C30F4
:102280000068C0000BD477483C30016841F08051B1
:102290000160006800F0805000904FF0010ADFF804
:1022A000D0B1DBF80000C00514D4DBF8000040F426
:1022B0008070CBF80000FFF743FD064606E0FFF70D
:1022C0003FFD801B022801D903200DE7DBF8000049
:1022D000C005F4D5634EA0686C3601280FD00528E0
:1022E00012D0306820F001003060306820F0040027
:1022F0003060A068F8B1FFF723FD834617E030682F
:1023000040F001003060F4E7306840F004003060D5
:10231000306840F001003060EBE7FFF711FDA0EB03
:102320000B0141F28830814201D90320DCE630689C
:102330008007F2D510E0FFF703FD834609E0FFF7C1
:10234000FFFCA0EB0B0141F28830814201D9032050
:10235000CAE630688007F2D4BAF1010F05D14148CE
:102360003C30016821F080510160A069C0B33D4953
:10237000091D09684FF0FF36C1F38101022946D0DB
:10238000022805D0C7F86090FFF7DAFC04463AE06F
:10239000C7F86090FFF7D4FC814607E0FFF7D0FC58
:1023A000A0EB0900022801D903209DE628688001DE
:1023B000F4D4D4E907010843616AA26A890106EBF3
:1023C000520241EA0241084394F82C1040EA0160AD
:1023D000C8F8000001203866FFF7B2FC044607E0A9
:1023E0003DE0FFF7ADFC001B022801D903207BE68E
:1023F00028688001F5D532E0FFF7A2FC001B022817
:1024000001D9032070E628688001F5D427E001286F
:1024100023D0D8F80000E26900F4800191421AD17B
:10242000226A00F03F01914215D147F6C071626AFD
:102430000140B1EB821F0ED1A26A00F4403106EBDD
:102440005202B1EB024F06D194F82C1000F07060EC
:10245000B0EB016F03D0012046E6012044E60020E6
:1024600042E600000438024000004742800E474226
:102470000070004010B5401EB0F1807F01D30120F4
:1024800010BD4FF0E02460610F21601702F064FD81
:102490000020A06107202061002010BD7047704718
:1024A00010B590F83C20012A22D0012280F83C206F
:1024B000CA6800238C6822F4407222434C6822F4DC
:1024C000806222430C6822F4006222430C6922F4E9
:1024D000805222434C6922F400522243C96922F4FB
:1024E00080420A4301684A6480F83C30002010BDF5
:1024F000022010BD10B50446002909D004290AD0D5
:1025000008290BD094F8450001280AD0012010BDFD
:1025100094F84200F8E794F84300F5E794F8440093
:10252000F2E7022089B3042933D0082934D084F893
:1025300045000422206802F0F6F82068416C41F45E
:102540000041416419492068884214D0B0F1804F9D
:1025500011D0174988420ED0164988420BD016492F
:10256000884208D01549884205D01549884202D0D2
:102570001449884213D1816801F00701062912D05D
:10258000016841F0010101600DE0FFE784F84200BD
:10259000CFE784F84300CCE784F84400C9E701683A
:1025A00041F001010160002010BD00000000014069
:1025B0000004004000080040000C004000040140FE
:1025C000004001400018004010B50446002C03D024
:1025D00094F83D0010B107E0012010BD002084F800
:1025E0003C00204600F016F8022084F83D00211D32
:1025F000206802F025F801203D3460726070A07000
:10260000E07020716071A071E07120722070002074
:1026100010BD000008B500680B49884212D10B4874
:10262000016841F010010160006800F010000090A6
:10263000012211463620FFF70BFCBDE8084036208A
:10264000FFF7F9BB08BD0000001000404038024011
:1026500090F83D10012901D001207047022180F837
:102660003D100168CA6842F00102CA60006814495E
:10267000884214D0B0F1804F11D0124988420ED058
:10268000114988420BD01149884208D0104988422C
:1026900005D01049884202D00F49884209D181688B
:1026A00001F00701062908D0016841F0010101602D
:1026B00003E0016841F00101016000207047000063
:1026C000000001400004004000080040000C0040F1
:1026D000000401400040014000180040704770B500
:1026E0000446206801694FF00005C943890716D4E4
:1026F000C168C943890712D4E91E0161012020770E
:1027000020688069800703D02046FFF7E7FF05E0D7
:10271000204600F09BF8204600F0FAF92577206863
:102720000169C943490718D4C168C943490714D48A
:102730006FF004010161022020772068806910F4A5
:10274000407F03D02046FFF7C9FF05E0204600F098
:102750007DF8204600F0DCF9257720680169C9433F
:10276000090717D4C168C943090713D46FF00801DA
:102770000161042020772068C069800703D02046CB
:10278000FFF7ACFF05E0204600F060F8204600F0BF
:10279000BFF9257720680169C943C90618D4C16803
:1027A000C943C90614D46FF01001016108202077D5
:1027B0002068C06910F4407F03D02046FFF78EFFE9
:1027C00005E0204600F042F8204600F0A1F9257708
:1027D00020680169C943C90708D1C168C943C9074D
:1027E00004D1891E0161204600F002FA20680169C7
:1027F000C943090609D4C168C943090605D46FF065
:10280000800101612046FFF749FE20680169C94344
:10281000490609D4C168C943490605D46FF040018F
:102820000161204600F02AFA20680169C94389063F
:102830000BD4C168C943890607D46FF02001016138
:102840002046BDE87040FFF72ABE70BD704770B5E6
:1028500004460D4694F83C0001280AD0012084F873
:102860003C0042B1042A1AD0082A2DD00C2A53D198
:102870003EE0022070BD2946206801F061FF20681B
:10288000816941F0080181612068816921F00401BA
:102890008161206881692A69114381613CE0294690
:1028A000206801F081FF2068816941F40061816145
:1028B0002068816921F480618161206881692A69C9
:1028C00041EA0221816127E02946206801F0A6FF44
:1028D0002068C16941F00801C1612068C16921F027
:1028E0000401C1612068C1692A691143C16113E013
:1028F0002946206801F0CAFF2068C16941F40061DF
:10290000C1612068C16921F48061C1612068C16929
:102910002A6941EA0221C161002084F83C0070BDAF
:1029200010B50446002C03D094F83D0010B107E028
:10293000012010BD002084F83C00204600F016F86D
:10294000022084F83D00211D206801F079FE01205D
:102950003D3460726070A070E07020716071A07191
:10296000E07120722070002010BD00002DE9F04FB2
:1029700087B00446DFF878812068DFF870B15C4DDD
:10298000022601274FF4406A08F11008B0F1804F89
:102990001CD1286840F002002860286800F002007E
:1029A0000190D8F8000040F00100C8F80000D8F805
:1029B000000000F001000190CDF808A003960497F4
:1029C0000596069702A95846FFF7B6F84949DFF879
:1029D0002091206809F1140988421CD1286840F030
:1029E00001002860286800F001000190D9F800007B
:1029F00040F00100C9F80000D9F8000000F0010023
:102A00000190CDF808A0039604970596069702A9B1
:102A10003948FFF791F83949206888421ED1286863
:102A200040F004002860286800F004000190D9F804
:102A3000000040F00200C9F80000D9F8000000F0E2
:102A4000020001904FF4407002900396049705969F
:102A50000320069002A92A48FFF76EF8294920684A
:102A600088421DD1286840F008002860286800F0DE
:102A700008000190D8F8000040F00400C8F80000F9
:102A8000D8F8000000F0040001904FF4704002906C
:102A9000039604970596069602A91B48FFF74CF883
:102AA0001A49206888421DD1286840F00200286039
:102AB000286800F002000190D8F8000040F04000C3
:102AC000C8F80000D8F8000000F040000190C800ED
:102AD00002900396049705960920069002A958468D
:102AE000FFF72AF807B0BDE8F08F000000040240AD
:102AF0003038024000000140000002400004014064
:102B00000008024000080040000C0240001800408D
:102B10007047000010B50446002909D004290AD0E6
:102B200008290BD094F8410001280AD0012010BDDB
:102B300094F83E00F8E794F83F00F5E794F8400079
:102B4000F2E70220A9B3042937D0082938D084F845
:102B500041000122206801F0D9FD1E4920681E4A6B
:102B6000884201D0904203D1436C43F40043436454
:102B70002068884213D0B0F1804F10D017498842A6
:102B80000DD0174988420AD01649884207D0904292
:102B900005D01549884202D01449884213D1816872
:102BA00001F00701062912D0016841F0010101601E
:102BB0000DE0FFE784F83E00CBE784F83F00C8E76C
:102BC00084F84000C5E7016841F001010160002080
:102BD00010BD00000000014000040140000400405E
:102BE00000080040000C0040004001400018004078
:102BF00010B500681C49884235D101F0A3FA1B4B7F
:102C00000021012293F8670050B193F86500401C41
:102C1000C0B283F86500082802D303F8671F5A7012
:102C2000134B93F8670050B193F86500401CC0B295
:102C300083F86500082802D303F8671F5A700D4B0C
:102C40001888401C80B21880B0F57A7F01D99A703C
:102C50001980094B1888401C80B21880B0F5FA6FB3
:102C600001D99A70198010BD00100040900E00200C
:102C700064100020400100202800002070477047A9
:102C800070470000F8B5044622681068D16853699F
:102C900000F00F05002D08D1860606D58E0604D556
:102CA0002046BDE8F84001F09EBE0026002D60D011
:102CB00003F0010501F490772F435AD0C20705D0E5
:102CC000CA0503D5226C42F001022264420705D5F1
:102CD000DA0703D0226C42F002022264820705D593
:102CE000DA0703D0226C42F004022264020707D5FF
:102CF00001F020022A4303D0226C42F00802226431
:102D0000226C002A2BD0800604D5880602D52046E6
:102D100001F069FE20684069C0F38010216C09074A
:102D200000D408B3204601F039FE20684169490605
:102D300016D5416921F040014161A06B60B1444961
:102D40000165A06BFEF721FE002808D0A06B016D85
:102D500001B0BDE8F04008472046FFF791FFF8BDFD
:102D60002046FFF78DFFF8BD2046FFF789FF266458
:102D7000F8BD236B012B58D1C30656D5CB0654D5CD
:102D800010685068009050694FF0200340062ED51F
:102D9000A16B0868406880B20028E9D0A58D854203
:102DA000E6D9E085C869B0F5807F18D0D06820F4F6
:102DB0008070D0602068416921F001014161206884
:102DC000416921F04001416184F83E30266320686A
:102DD000C16821F01001C160A06BFEF78FFDA08DCE
:102DE000E18D401A81B22046FFF749FFF8BDA08D62
:102DF000E18D401A81B2E08D0028F7D00029F5D08E
:102E0000D06820F49070D0602068426922F00102FE
:102E1000426184F83E3026632068C26822F01002C6
:102E2000C2602046FFF72BFFF8BD020606D50A0652
:102E300004D52046BDE8F84001F0D3BE4006F3D5E6
:102E40004806F1D52046BDE8F84001F0BFBD0000BE
:102E50008D49000870B50446002C04D094F83D005C
:102E6000002510B106E0012070BD84F83C502046DA
:102E700000F022F8242084F83D002068C16821F485
:102E80000051C160204601F007FE2068016921F46D
:102E9000904101612068416921F02A014161206867
:102EA000C16841F40051C1602564202084F83D00D0
:102EB00084F83E00002070BD30B587B000681E4920
:102EC000884237D11D48016841F010010160006857
:102ED00000F01000019019481438016841F0020117
:102EE0000160016801F002010191016841F00201F5
:102EF0000160006800F00200019040200290022072
:102F00000390012104910590072406940C4D02A919
:102F10002846FEF711FE80210291069402A9284658
:102F2000FEF70AFE2520FEF786FF03221146252024
:102F3000FEF78EFF07B030BD00100140443802405C
:102F4000000402402DE9F84F04460E461546984607
:102F500094F83E00202802D00220BDE8F88F0EB37E
:102F600005B394F83C0001281ED0012084F83C00F1
:102F70004FF0000AC4F840A0222084F83E00C4F8B4
:102F800030A0FEF7DDFE8146A585E585A0684FF4FB
:102F90008057B84201D1206940B13546002684F8F7
:102FA0003CA028E00120D8E70220D6E70025F6E77C
:102FB0004B46002220212046CDF8008001F040FE43
:102FC00008B10320C9E725B1A068B8421BD038B1C9
:102FD00008E020684068C0F3080026F8020B07E00C
:102FE000206980B12068406800F07F0028706D1C67
:102FF000E08D401EE085E08D0028D9D1202084F8A6
:103000003E000020A9E7206840682870EFE790F8AC
:103010003E30202B01D00220704759B152B190F8B8
:103020003C30012B08D0012380F83C30002303639F
:1030300001F0BCBD012070470220704730B4006829
:103040001649884228D1164A5088010419D41146DD
:10305000440409784FF0000307D50A2901D05380B2
:103060000FE040F4004050800BE00D2910D00D4DD2
:10307000C0F30D042955401C80B25080C72800D9E8
:1030800053800848012230BC0549C830FFF7BFBF54
:1030900040F480405080F4E730BC7047001001409D
:1030A00008000020540100202DE9F84304460E4694
:1030B00015461F4694F83D00202802D00220BDE8A6
:1030C000F883C6B1BDB194F83C00012815D00120A9
:1030D00084F83C004FF00009C4F84090212084F8A7
:1030E0003D00FEF72DFE8046A584E584A068B0F57E
:1030F000805F04D005E00120E1E70220DFE72069DE
:1031000020B13546002684F83C9013E00025FAE70C
:103110004346002280212046009701F091FD08B12E
:103120000320CCE79DB1216815F8010B4860E08CC5
:10313000401EE084E08C0028EAD143460022402172
:103140002046009701F07CFD40B10320B7E736F838
:10315000020B2168C0F308004860E8E7202084F8EB
:103160003D000020ABE7704710B5124C94F86800A2
:1031700000281ED094F86600801E81B2601C00F00A
:1031800039F994F86610621E635C895C03EB0121D7
:1031900089B2884209D1617894F8D500814204D17E
:1031A000A178032901D100F051F8002004F8660F3E
:1031B000A07010BD64100020FEE7000008B5FEF707
:1031C00001FE00F09FFF0723022208214FF4A870A0
:1031D00008F050FEA82004F0C1FC4FF4E13008F0E4
:1031E00081FF06F071F942F2CF01092004F0FAFBE9
:1031F000532140F2CF7004F0B1FB05F0B1FE00F0B6
:10320000F7FB07F0B7FD00F00BF901F069F90020BA
:1032100006231A044FF4A001009004F0F7FB40F2DB
:10322000DC51042005F070FF05F04CFA09F058F865
:10323000034968200880BDE8084002A001F064BE90
:10324000640A00204552524F5200000070B5124CE3
:103250000126A4F1100561792279012841EA0223AF
:1032600004D129706A702B8184F8DD60022804D1B2
:10327000A970EA706B8184F8DD60032804D129719C
:103280006A71AB8184F8DD60042804D1A971EA7108
:10329000EB8184F8DD6070BD641000202DE9F04101
:1032A000164D2872287003206870080AA870E9700B
:1032B000100A28716A710621284600F09BF8010A5D
:1032C000A971E871CD3D01220D4F160331463846F4
:1032D000FEF729FD00242819CD30012100F0ACF8BB
:1032E000641C082CF7DB002231463846FEF71BFD34
:1032F000012085F8D600BDE8F081000031110020E2
:10330000001402402DE9F04186B080460025344982
:10331000086840F020000860086800F02000009075
:10332000086840F008000860086800F00800009095
:10333000086840F008000860086800F00800009085
:1033400027491031086840F400300860086800F42C
:103350000030009020200190022402940126039660
:103360000494072005901F4F01A93846FEF7E4FB9F
:103370004020019001A93846FEF7DEFBE7020197E5
:10338000029603960494184E01A93046FEF7D4FB2A
:10339000174C16482060C4F80480A560E5602561DC
:1033A000A5610C2060612046FFF754FD2068C168CC
:1033B00021F04001C1602068C16841F02001C16076
:1033C0002620FEF738FD032211462620FEF740FD99
:1033D000002239463046FEF7A6FC06B0BDE8F08173
:1033E00030380240000C024000140240004400400B
:1033F0001010002070B5FF22FF23084D05F58076E0
:1034000005E010F8014B54402A5D5A40335D491ED7
:1034100089B2F6D243EA022070BD000046E00008FF
:1034200010B54FF4E130FFF76DFF0249002081F83D
:10343000670010BD641000202DE9F04107460E46DC
:1034400001220A4D140321462846FEF76CFC4FF476
:103450007A73324639460648FFF726FE214628464B
:10346000BDE8F0410022FEF75EBC000000140240FF
:103470001010002070B50B4C002565600A480168EB
:1034800021F003010160016841F001010160256044
:10349000022004F06FFB01206060022004F06AFB50
:1034A000656070BD808242420014024010B586B053
:1034B0000C48016841F020010160006800F0200024
:1034C00000900320019001240294039402200490B0
:1034D00001A90548FEF730FB04480460446006B0CB
:1034E00010BD000030380240001402408082424289
:1034F00070B50B4C002565600A48016821F0030196
:103500000160016841F0010101600126266002208E
:1035100004F030FB6660022004F02CFB656070BD97
:1035200080824242001402402DE9F0478146002487
:103530001548016821F00301016001680160002560
:10354000124E00274FF00108C6F88472022004F0E2
:1035500011FBC6F884826006040ED6F8000208B19A
:10356000641CE4B2012004F005FB6D1CEDB2082DD3
:10357000EAD3B9F1000F04D0FFF77CFF2046BDE885
:10358000F087FFF7B5FFF9E70014024000804242E0
:103590002DE9F04105461448016821F0030101605E
:1035A000016841F001010160104E4FF00008C6F8BB
:1035B000848200240127E809C6F880026806050E07
:1035C000022004F0D7FAC6F88472022004F0D2FA7E
:1035D000C6F88482022004F0CDFA641CE4B2082C00
:1035E000E9D3BDE8F08100000014024000804242AF
:1035F00070B50B48016821F003010160016841F0DA
:1036000001010160074C012020606060042004F08B
:10361000B1FA00252560042004F0ACFA656070BDA5
:10362000001402408082424210B50C48016821F02B
:1036300003010160016841F001010160084C0020B4
:1036400060602060042004F095FA01206060206032
:10365000BDE81040042004F08DBA000000140240C0
:103660008082424270B500241148016821F00301B4
:103670000160016801600F4D0126C5F880620120DC
:1036800004F078FAC5F88462012004F073FA07E0C8
:10369000641CE4B2FA2C03D9FFF7C6FF012070BD09
:1036A000D5F800020028F3D1C5F8840270BD0000EF
:1036B000001402400080424210B504462DED028BFA
:1036C000B0EE408AF0EE608A00224FF400411748C5
:1036D000FEF729FB9FED160B012C06D0ACB1BDEC1B
:1036E000028BBDE8104000F027B853EC102B51ECD2
:1036F000180BFCF7C3FFFDF7C0F8BDEC028B80B2DE
:10370000BDE81040002104F05DB853EC102B51ECE3
:10371000180BFCF7B3FFFDF7B0F8BDEC028B81B2DC
:10372000BDE81040002004F04DB800000010024039
:1037300000000000000059400021084604F042B893
:1037400070B50B4C002525600A48016821F4402122
:103750000160016841F4802101606560022004F08D
:1037600009FA01202060022004F004FA256070BDEF
:10377000A08240420004024010B586B00C480168A7
:1037800041F002010160006800F0020000904FF477
:10379000407001900124029403940220049001A936
:1037A0000448FEF7C9F904484460046006B010BD3F
:1037B0003038024000040240A082404270B50B4CF9
:1037C000002525600A48016821F440210160016854
:1037D00041F48021016001266660022004F0CAF9EC
:1037E0002660022004F0C6F9256070BDA082404228
:1037F000000402402DE9F047814600241548016885
:1038000021F440210160016801600025124E00276B
:103810004FF00108C6F8A072022004F0ABF9C6F818
:10382000A0826006040ED6F8240208B1641CE4B23B
:10383000012004F09FF96D1CEDB2082DEAD3B9F117
:10384000000F04D0FFF77CFF2046BDE8F087FFF7AC
:10385000B5FFF9E700040240008040422DE9F04145
:1038600005461548016821F440210160016841F4D2
:1038700080210160114E4FF00008C6F8A08200249C
:103880000127E809C6F8A4026806050E022004F024
:1038900071F9C6F8A072022004F06CF9C6F8A08293
:1038A000022004F067F9641CE4B2082CE9D3BDE8F7
:1038B000F04100F045B800000004024000804042A2
:1038C00070B50D48016821F440210160016841F4A0
:1038D00080210160094C012060602060042004F018
:1038E00049F900256560042004F044F92560BDE82D
:1038F0007040022004F03EB900040240A082404221
:1039000010B50D48016821F440210160016841F4BF
:1039100080210160094C002020606060042004F0D8
:1039200029F9012020606060042004F023F9BDE83B
:103930001040FFF743BF000000040240A082404255
:1039400070B500241148016821F44021016001682C
:1039500001600F4D0126C5F8A462012004F00AF9A8
:10396000C5F8A062012004F005F907E0641CE4B288
:10397000FA2C03D9FFF7C4FF012070BDD5F824024B
:103980000028F3D1C5F8A00270BD00000004024079
:103990000080404210B5134A111F081F07F038F984
:1039A00010489FED110A10381049D0ED020A60EE60
:1039B000800AFDEEE00A10EE902A0A86D0ED030A96
:1039C00060EE800AFDEEE00A10EE902A4A86D0ED05
:1039D000040A20EE800ABDEEC00A10EE100A8886A6
:1039E00010BD0000280100200000C842640A002029
:1039F00010B5FFF75BFD80216B2000F0C1F864205B
:103A000004F0B2F800216B2000F0BAF8032000F0B7
:103A100084F8002000F07CF8322000F09BF80021B0
:103A2000382000F0ADF800216A2000F0A9F800214C
:103A3000232000F0A5F88021372000F0A1F87520A0
:103A400000F011F8682801D0012010BD01216B2081
:103A500000F096F800216C2000F092F8322000F07F
:103A600079F8002010BD10B50446FFF7C1FDD02045
:103A7000FFF78EFDFFF7F6FD2046FFF789FDFFF704
:103A8000F1FDFFF7B5FDD120FFF782FDFFF7EAFD5D
:103A90000020FFF749FD0446FFF7C6FD204610BD94
:103AA0002DE9F04106460F4615461C46FFF7A0FDDE
:103AB0007006000EFFF76CFDFFF7D4FD20B1FFF795
:103AC000B3FD0120BDE8F0813846FFF761FDFFF747
:103AD000C9FDFFF78DFD012000EB4600C0B2FFF7E6
:103AE00057FDFFF7BFFD08E0012D0CD00120FFF7C7
:103AF0001BFD20706D1EEDB2641C002DF4D1FFF78C
:103B000093FD0020DEE70020FFF70EFD2070F1E7B7
:103B1000C006010E1C2000F033B8C006010E1B20A9
:103B200000F02EB8BC2801D3012110E0622801D397
:103B300002210CE02A2801D3032108E0142801D334
:103B4000042104E00A2801D3052100E006211A20FF
:103B500000F016B810B504464FF47A70844200D9CC
:103B60000446042C00D20424B0FBF4F0401EC1B281
:103B7000192000F005F86008BDE81040FFF7D2BF3B
:103B800070B505460C46FFF733FDD020FFF700FD6A
:103B9000FFF768FD18B1FFF747FD012070BD28460B
:103BA000FFF7F6FCFFF75EFD2046FFF7F1FCFFF79D
:103BB00059FD18B1FFF738FD012070BDFFF734FD46
:103BC000002070BD2DE9F04104460F4616461D4603
:103BD000FFF70EFD6006000EFFF7DAFCFFF742FD6F
:103BE00020B1FFF721FD0120BDE8F0813846FFF745
:103BF000CFFCFFF737FD00240BE0285DFFF7C8FC82
:103C0000FFF730FD18B1FFF70FFD0120ECE7641C52
:103C1000E4B2B442F1D3FFF707FD0020E4E7FEE78A
:103C20002DE9F0478EB007460D46142109A8FCF790
:103C300066FC1C2102A8FCF762FC0024504A1068B4
:103C400040F001001060106800F0010001904C4A43
:103C5000143A106840F001001060106800F0010094
:103C60000190106840F001001060106800F0010041
:103C70000190106840F010001060106800F0100013
:103C80000190106840F010001060106800F0100003
:103C90000190106840F010001060106800F01000F3
:103CA00001904FF40046099602220A920B920C9260
:103CB00001200D90DFF8CC8009A94046FDF73CFFBC
:103CC000F0110990DFF8C0A009A95046FDF734FFB4
:103CD0004FF08009CDF8249009A95046FDF72CFF3C
:103CE0003011099009A94046FDF726FF701109908F
:103CF00009A94046FDF720FF254A24481060556079
:103D00009460D76040151061C2F818901046FEF715
:103D100007FE602002900494059407940894002202
:103D200002A91B48FEF793FD042202A91848FEF7DA
:103D30008EFD1848046044608460F1100161490000
:103D400041614900C16101461148FEF7A9FB00210C
:103D50000F48FEF7DFFE00210D48FEF7CBFB0421E4
:103D60000B48FEF7D7FE04210948FEF7C3FB0022EB
:103D700031464046FDF7D7FF0EB0BDE8F0870000A2
:103D800044380240001002400000024000000140A0
:103D900070050020B003002030B587B004460D4602
:103DA0001C216846FCF7ABFB1B4A1A4810605560A3
:103DB00000259560D4601046FEF7B2FD60200090AB
:103DC000019502200290082269461348FEF73FFD44
:103DD00008211148FEF79EFE0C2269460E48FEF7A8
:103DE00036FD0C210C48FEF795FE002269460A4874
:103DF000FEF72DFD00210848FEF78CFE04226946DF
:103E00000548FEF724FD04210348FEF783FE07B0B2
:103E100030BD000000080040C804002030B587B065
:103E200004460D461C216846FCF769FB114A4FF019
:103E300080401060556000259560D4601046FEF704
:103E40006FFD6020009001950220029008226946D3
:103E50000848FEF7FCFC08210648FEF75BFE0C2232
:103E600069460448FEF7F3FC0C210248FEF752FEB7
:103E700007B030BD8004002030B587B004460D4641
:103E80001C216846FCF73BFB124A11481060556044
:103E900000259560D4601046FEF742FD602000903A
:103EA000019502200290082269460A48FEF7CFFCDD
:103EB00008210848FEF72EFE0C2269460548FEF749
:103EC000C6FC0C210348FEF725FE07B030BD0000FC
:103ED00000040140380400202DE9F0438DB006466F
:103EE0000D46142108A8FCF70AFB1C2101A8FCF7C9
:103EF00006FB00244C4A106840F002001060106875
:103F000000F002000090484A143A106840F00400A3
:103F10001060106800F004000090106840F001008C
:103F20001060106800F001000090106840F004007C
:103F30001060106800F004000090106840F002006B
:103F40001060106800F002000090106840F001005E
:103F50001060106800F001000090402008900222DC
:103F600009920A920B9203200C90DFF8C09008A9E6
:103F70004846FDF7E1FD202008902D4F08A938465E
:103F8000FDF7DAFD4FF08008CDF8208008A94846FB
:103F9000FDF7D2FD0120089008A92648FDF7CCFDC9
:103FA000264A2548106055609460D660401510611F
:103FB000C2F818801046FEF7B3FC6020019003940D
:103FC000049406940794002201A91C48FEF73FFCC4
:103FD000042201A91948FEF73AFC1948046044601C
:103FE0008460B9140161490041614900C161014621
:103FF0001248FEF755FA00211048FEF78BFD00210C
:104000000E48FEF777FA04210C48FEF783FD0421E1
:104010000A48FEF76FFA002240213846FDF783FE7A
:104020000DB0BDE8F08300004438024000080240B3
:10403000000002400004024000040140B8050020D6
:10404000D003002030B587B004460D461C216846D9
:10405000FCF755FA124A114810605560002595602A
:10406000D4601046FEF75CFC6020009001950220B1
:104070000290002269460A48FEF7E9FB0021084841
:10408000FEF748FD042269460548FEF7E0FB0421DF
:104090000348FEF73FFD07B030BD000000180040A8
:1040A0001005002030B587B004460D461C21684637
:1040B000FCF725FA124A11481060556000259560FA
:1040C000D4601046FEF72CFC602000900195022081
:1040D0000290082269460A48FEF7B9FB0821084801
:1040E000FEF718FD0C2269460548FEF7B0FB0C21CF
:1040F0000348FEF70FFD07B030BD0000000001408F
:10410000F003002010B553216320FFF789FD5321F0
:104110006320FFF7E1FE53216320FFF7C3FF532124
:104120006320FFF7A9FE29216320FFF777FE2921ED
:104130006320FFF731FE2921BDE810406320FFF71F
:1041400081BF7047F0B500200E4C00260127211FCB
:104150000D7814E000EB400104EB8102137963B9A0
:1041600034F821305B1C9BB224F82130B2F802C035
:10417000634502D324F821601771401CC0B2A842E5
:10418000E8D3F0BD30000020FFF718F800240B4EF4
:104190000027A6F1040804F0B1FF04EB440006EB8D
:1041A0008005287910B1A86880472F71641C98F8A1
:1041B0000000E4B28442EED30024ECE7300000209B
:1041C0007047000010B504462DED028BB0EE408A1A
:1041D000F0EE608A002240211648FDF7A4FD9FED15
:1041E000160B012C06D0ACB1BDEC028BBDE8104023
:1041F00000F026B853EC102B51EC180BFCF73EFAEC
:10420000FCF73BFBBDEC028B80B2BDE81040002107
:1042100003F0F4BA53EC102B51EC180BFCF72EFA08
:10422000FCF72BFBBDEC028B81B2BDE810400020F7
:1042300003F0E4BA00000240000000000000594012
:104240000021084603F0DABA7047000070B5FF227B
:10425000FF23084D05F5807605E010F8014B54402A
:104260002A5D5A40335D491E89B2F6D243EA0220E4
:1042700070BD000046DE000810B51A4C94F86800C6
:1042800000282ED094F86600801E81B2601CFFF7D3
:10429000DDFF94F86610621E635C895C03EB01210C
:1042A00089B2884219D160782178884215D1A078E6
:1042B000112812D2DFE800F01111110911110C11AF
:1042C00011111111111111110F0000F05DF804E02E
:1042D00000F0BAF801E000F007F8002004F8660FDB
:1042E000A07010BD900E00202DE9F047244D2B79D1
:1042F000EC7803EB042082B2AE796F7906EB0720ED
:104300001FFA80FC0020A5F22C480CE005EB4001D0
:1043100091F80990097A09EB012102EB000928F8CC
:104320001910401C80B26045F0D3513515F8500C7F
:10433000287615F84F0C6876AC76EB762F776E778B
:104340000F4806216930FFF781FF010AA977E87756
:10435000513D0C4E012211463046FDF7E4FC00248D
:1043600028196930012100F0C9F8641CA4B2082C96
:10437000F6D33046BDE8F04700220121FDF7D3BC5B
:10438000900E0020001802402DE9F0412B4D2879B5
:10439000E97800EB012087B2A879697900EB012068
:1043A00086B2287885F869002946032081F86A00DA
:1043B0007000032481F86B00002014E020493A18B3
:1043C00031F91210CA1701EB1263621C2C444FEA38
:1043D000132CD2B284F869C0531C2A44DCB282F890
:1043E0006910401CC0B2B042E8D31448214669307D
:1043F000FFF72CFF020A611C6319C9B283F8692018
:104400004A1C2944D6B281F869000E4F0122114698
:104410003846FDF788FC002406E0281969300121A0
:1044200000F06CF8641CE4B2B442F6D33846BDE840
:10443000F04100220121FDF776BC0000900E002023
:10444000640A0020001802402DE9F041224D28792D
:10445000E97800EB012082B2A879697900EB0120AC
:10446000A5F22C4121F81200297885F869102B4615
:10447000062183F86A102C46130A84F86B30234611
:1044800083F86C20020A83F86D201A4682F86E00C9
:1044900002F16900FFF7DAFE2246010A82F86F1086
:1044A0001146082681F870000C4F0122114638464B
:1044B000FDF739FC002406E028196930012100F0DD
:1044C0001DF8641CA4B2B442F6D33846BDE8F041EE
:1044D00000220121FDF727BC900E002000180240A9
:1044E00010B54FF4165000F025F803480121017073
:1044F000002180F8671010BD900E002070B50646B0
:104500000D460A4C012211462046FDF70CFC4FF4E3
:104510007A732A4631460648FEF7C6FD2046BDE8B6
:10452000704000220121FDF7FEBB00000018024090
:104530004C0E00202DE9F04186B08046002534481D
:10454000016841F040010160016801F04001009103
:10455000016841F040010160016801F040010091F3
:10456000016841F040010160006800F040000090E7
:1045700027481430016841F020010160006800F014
:10458000200000904FF48040019002260296012402
:1045900003940496082005901E4F01A93846FDF7A4
:1045A000CBFA6002019001A93846FDF7C5FA0194E3
:1045B00002940394049601A93846FDF7BDFA174CFE
:1045C00015482060C4F80480A560E5602561A561F8
:1045D0000C2060612046FEF73DFC2168C86820F091
:1045E0004000C8602168C86840F02000C8604720CB
:1045F000FDF721FC032211464720FDF729FC00228C
:1046000001213846FDF78FFB06B0BDE8F0810000C0
:104610003038024000180240001401404C0E0020C7
:10462000FDF7C8BB0248016841F4700101607047A2
:1046300088ED00E00148FEF752B80000480600206F
:104640002DE9F0410268264D264E274FDFF89CC029
:10465000274B4FF08048A84209D0404507D0B042D0
:1046600005D0B84203D0604501D0984203D122F072
:1046700070044A682243A8421BD0404519D0B0427A
:1046800017D0B84215D0604513D0984211D0194CBC
:10469000A0420ED0184CA0420BD0184CA04208D01B
:1046A000174CA04205D0174CA04202D0164CA04295
:1046B00003D122F44074CA6822434C6922F080027C
:1046C000224302608A68C2620A688262A84201D0FC
:1046D000984201D10969016301214161BDE8F0817E
:1046E000000001400004004000080040000C0040B1
:1046F00000040140004001400044014000480140E6
:1047000000180040001C00400020004010B501F0DF
:104710001F0101238B40046A9C430462036A8A40A0
:104720001343036210BD10B501F01F0104238B4039
:10473000046A9C430462036A8A401343036210BD07
:10474000F0B5026A22F001020262026A43688469DB
:1047500024F0700424F003050C682C4322F00205B9
:104760008A682A430E4E0F4FB04201D0B84205D19D
:1047700022F00805CA682A4322F00402B04201D0A0
:10478000B84207D123F4807323F400734D691D43AD
:104790008B692B4343608461496841630262F0BDC9
:1047A0000000014000040140F0B5026A22F010024E
:1047B0000262036A4268846924F4E04424F4407489
:1047C0000D6844EA052423F020038D6843EA0513AD
:1047D000104D114EA84201D0B04206D123F0800303
:1047E000CF6843EA071323F04003A84201D0B04248
:1047F00009D122F4806222F400624D6942EA850206
:104800008D6942EA8502426084614968816303627E
:10481000F0BD00000000014000040140F0B5026A54
:1048200022F480720262026A4368C46924F0700450
:1048300024F003050C682C4322F400728D6842EAD0
:104840000522104D104EA84201D0B04206D122F4EC
:104850000062CF6842EA072222F48062A84201D0B7
:10486000B04209D123F4805323F400534D6943EA45
:1048700005138D6943EA05134360C4614968C16348
:104880000262F0BD000001400004014030B5026A40
:1048900022F480520262046A4268C36923F4E0434E
:1048A00023F440730D6843EA052324F400548D6813
:1048B00044EA0534084DA84202D0084DA84204D16C
:1048C00022F480424D6942EA85124260C361496820
:1048D0000164046230BD000000000140000401409A
:1048E000FCF7CCBA10B5064CA078002803D0FCF732
:1048F000E3FA0020A070BDE810406420FCF7C0BAC5
:104900004001002010B504F023FBBDE8104004F086
:104910009DBE07F041BCFFF7AFBC07F057BB03F0EB
:10492000ADBEFFF737B8000010B504F03DFCBDE8A0
:10493000104010210148FDF7EEB9000000000240D0
:1049400006F002B910B5012211020220FEF7A6FC02
:104950000B4890F8D61021B1002180F8D610FEF750
:1049600003FC0848818A09B9C18A09B1818819B153
:104970004FF4FA61C18110BD03494989C18110BD5D
:1049800064100020640A00205410002010B5806BD1
:104990000021C185C184FEF773F910BD0168CA68A2
:1049A00022F49072CA6001684A6922F001024A61E9
:1049B000016B012904D10168CA6822F01002CA60A3
:1049C000202180F83E1000210163704710B5016876
:1049D000CA6822F04002CA60202180F83D10FEF72C
:1049E000C2FB002010BD10B5044694F83E002228FA
:1049F00001D0022010BDA1684FF48052914201D134
:104A0000206920B1A06A91421DD051B10BE0A06A8B
:104A100021684968C1F308010180A06A801CA06276
:104A200009E0216979B12168496801F07F010170CD
:104A3000A06A401CA062E08D401E0004000CE085CE
:104A400005D0002010BD216849680170F0E720689A
:104A5000C16821F02001C1602068C16821F4807123
:104A6000C1602068416921F001014161202084F882
:104A70003E00206B012805D02046FEF7DFFA00201B
:104A8000206310BD2068C16821F01001C160A18DB4
:104A90002046FEF7F4F8F2E72DE9F04104462068DD
:104AA0000169E26821F4405111430161A168206964
:104AB000E26901436069104301432068C26849F21A
:104AC0000C639A430A43C26020684169A26921F4D9
:104AD00040711143416133492068884202D0324914
:104AE000884202D1FDF7A2FA01E0FDF78FFAE169F1
:104AF0000023192764253226B1F5004F28D06168BC
:104B00008B0F8A00A0FB0701FBF77EFC0146B0FB80
:104B1000F5F07A42504301EB800006EB0010B0FB49
:104B2000F5F000F0F002B1FBF5F002EB0012B1FB82
:104B3000F5F07B42584301EB800006EB0010B0FB20
:104B4000F5F0216800F00F0010448860BDE8F081A6
:104B500061684A18A0FB07015B41FBF755FC014661
:104B6000B0FBF5F00201B1FBF5F06FF0180358430C
:104B700001EB800006EBC000B0FBF5F000F0F800A0
:104B800002EB4002B1FBF5F0584301EB800006EB6D
:104B9000C000B0FBF5F0216800F007001044886009
:104BA000D4E70000001001400014014081628285BA
:104BB000C28500210164222280F83E2080F83C104A
:104BC0000168CA6842F48072CA6001684A6942F0AA
:104BD00001024A610068C16841F02001C160002003
:104BE000704790F83D10212901D00220704781685C
:104BF000B1F5805F01D1016961B1016A4A1C0262AD
:104C0000026809785160C18C491E0904090CC184ED
:104C10000AD013E0016A02680988C1F308015160F3
:104C2000016A891C0162EEE70168CA6822F080020D
:104C3000CA600068C16841F04001C160002070474F
:104C40002DE9F04104460E4617469846069D1DE0A4
:104C5000681C1BD02DB1FDF773F8A0EB0800A8422B
:104C600014D92068C16821F4D071C16020684169FD
:104C700021F001014161202084F83D0084F83E00CC
:104C8000002084F83C000320BDE8F0812068006823
:104C900036EA000004D00020B842D9D00020F3E763
:104CA0000120F9E70148FDF7EDBF00001C020020DC
:104CB00008B5134800680068C04380061ED44FF44E
:104CC0007A73012269460E48FEF73CF90C485430CD
:104CD00090F86810012911D090F866109DF8003006
:104CE0004A1C014480F866204B70002180F8651052
:104CF00090F86610012901D180F8671008BD000006
:104D00001010002008B5134800680068C0438006F2
:104D10001ED44FF47A73012269460E48FEF712F949
:104D20000C48443090F86810012911D090F86610B2
:104D30009DF800304A1C014480F866204B70002129
:104D400080F8651090F86610012901D180F867108D
:104D500008BD00004C0E0020FEE7034608469842BE
:104D600002DB904200DC0020704703460846984270
:104D700001DA184670479042FCDD10467047F0EEAD
:104D8000401AB0EE600AB4EEE10AF1EE10FA02D277
:104D9000B0EE610A7047B4EEC10AF1EE10FAF9DD27
:104DA000B0EE410A704700004048414AC0780028F0
:104DB00004D10220A2F88000A2F89200B2F980107B
:104DC0009FED3C0B3D489FED3E1B9FED3F2B012986
:104DD00012D0022932D003290DD1B2F99210012943
:104DE00050D0022951D0032952D0042955D0052989
:104DF00058D080ED020B7047B2F9921001290AD009
:104E000002290BD003290CD004290FD0052912D078
:104E100080ED020B704780ED020B704780ED021BA6
:104E200070479FED2B0B80ED020B70479FED2A0B17
:104E300080ED020B704780ED022B7047B2F99210A3
:104E400001290AD002290BD003290ED0042911D040
:104E5000052912D080ED020B704780ED020B7047E0
:104E60009FED1F0B80ED020B70479FED1F0B80ED38
:104E7000020B704780ED021B70479FED1D0B80ED0C
:104E8000020B704780ED020B704780ED021B7047EC
:104E90009FED190B80ED020B70479FED190B80ED14
:104EA000020B704780ED022B70470000400100208C
:104EB000640A0020000000000000F03FA80F00205E
:104EC000000000000000104000000000000028402A
:104ED0006666666666661A409A999999999922401B
:104EE000000000000000004000000000000008403A
:104EF00000000000000014400000000000001C4002
:104F000000000000000024400FB4054B10B503A9B9
:104F1000044A029801F0DAFF10BC5DF814FB0000AF
:104F2000A18700080C00002003B4019841000098FC
:104F300050EAC12018BF04204A0D18BF40F00100FC
:104F400040F2FF72B2EB515F08BF40F0020001284F
:104F500008BF052002B070470907090E002804DBCE
:104F600000F1E02080F80014704700F00F0000F11D
:104F7000E02080F8141D704770B5C1482DED020B7C
:104F80002DED0E8B82B0119D25F000449FEDBEDB10
:104F90009FEDBFEB84423EDBA4F140511098A1F19C
:104FA0007F6108430FD0BC48844202DC28D11098AE
:104FB00030B39DED100B02B0BDEC0E8B02B0BDE81E
:104FC000704001F029BF9DED100B53EC1D2B51ECEF
:104FD000100BFBF753FB9DED100B41EC180B53EC42
:104FE0001E2B51EC100BFBF749FB53EC182BFBF776
:104FF0009EFA41EC100B02B0BDEC0E8B02B070BDFE
:10500000012001F05DFF02B0BDEC0E8B02B0BDE8E7
:10501000704001F015BFA1489FEDA18B844256DA84
:105020009DED100BB4F1795F0ADA51EC100BFFF72C
:105030007BFF042808BF01F023FF9DED100BDAE78A
:1050400053EC102B51EC100BFBF718FB41EC190B38
:1050500095480621B0EE490AF0EE690A784401F05D
:10506000AFFD53EC192B51EC100BFBF707FB41EC98
:105070001A0B8E48B0EE490AF0EE690A0421784412
:1050800001F09EFD53EC192B51EC100BFBF7F6FAD7
:1050900053EC182BFBF74BFA41EC100B51EC1A0BAD
:1050A00053EC102BFBF75CFBCDE900019DED000BF1
:1050B00053EC102B9DED100B51EC100BFBF7DEFAAF
:1050C0009DED101B53EC112BFBF731FAD2E09DED57
:1050D000100B51EC100B03F0E9FA53EC182BFBF713
:1050E000CAFA9FED730BCDE9000153EC102B9DED37
:1050F000000B51EC100BFBF7C1FA41EC190B6E4899
:105100000621B0EE490AF0EE690A784401F058FD34
:1051100053EC192B51EC100BFBF7B0FA41EC1B0BC5
:105120006648B0EE490AF0EE690A0421784401F0BD
:1051300047FD53EC192B51EC100BFBF79FFA53EC86
:10514000182BFBF7F4F941EC1C0B51EC190B06F092
:1051500059FE41EC180B5A489FED5BABA04222DC94
:1051600053EC1C2B51EC1B0BFBF7FAFACDE90001B9
:105170009DED000B51EC180B53EC102BFBF77EFA56
:1051800053EC182BFBF7D3F953EC1A2BFBF776FAF9
:1051900053EC1D2BFBF76CFA53EC1E2BFBF76BFA51
:1051A00041EC100B5FE08DED008B002000909DED39
:1051B000000B51EC180B53EC102BFBF7B8F99DEDDD
:1051C000000B41EC1E0B53EC102B51EC100BFBF7BA
:1051D00055FA53EC192BFBF74EFA53EC1E2BFBF749
:1051E000BFFA41EC190B53EC1C2B51EC1B0BFBF7DA
:1051F000B7FA41EC1B0B53EC1A2B51EC190BFBF7D4
:105200003DFA53EC1D2BFBF736FA41EC190B53EC2E
:105210001A2B51EC180BFBF731FA53EC1B2BFBF755
:105220002DFA53EC192BFBF723FA9DED000B41EC03
:10523000180B53EC1A2B51EC100BFBF71FFA9FEDD8
:10524000249B53EC192BFBF716FA41EC100B51EC95
:10525000180B53EC102BFBF70BFA53EC192BFBF745
:105260000AFA41EC100B002D3FF7C5AE51EC100BC4
:1052700081F0004141EC100BBDE600000000000091
:105280000000F03F00000000075C143326A6913CAC
:10529000182D4454FB21F93F0000F07F0000E03F4F
:1052A000000000000000F03F389B0000469B00001B
:1052B000000000000000E03F8A9A0000989A000079
:1052C0003333EF3F0000000000000000000000400A
:1052D000182D4454FB21E93F70B59B482DED020B7E
:1052E0002DED068B079D25F00044A04218DC974861
:1052F000844202DC0AD1069840B19DED060BBDEC5C
:10530000068B02B0BDE8704001F086BD002DCCBF19
:105310009FED8F0B9FED900BBDEC068B02B070BD27
:105320008F48A04215DD8F48A042D8BF4FF0FF3410
:1053300058DD9DED060B51EC100BFFF7F5FD042831
:1053400008BF01F09DFD9DED060BBDEC068B02B084
:1053500070BD9DED060B51EC100B03F0A7F9CDE9E4
:10536000060181489FED828BA0423CDD8248A0422D
:105370001FDD00249FED82AB9DED060B53EC1A2B35
:1053800051EC100BFBF7D3F89DED060B41EC190B1C
:1053900053EC1A2B51EC100BFBF770F953EC182B54
:1053A000FBF766F953EC192BFBF7DAF9CDE90601A7
:1053B00049E09DED060B012453EC182B51EC100B2A
:1053C000FBF7B5F89DED060B41EC190B53EC182BD0
:1053D00051EC100BFBF74CF953EC192BFBF7C0F910
:1053E000CDE906012FE06848A0421FDD02249FEDB1
:1053F000689B9DED060B53EC192B51EC100BFBF742
:105400003DF953EC182BFBF792F89DED060B41ECA0
:10541000180B53EC192B51EC100BFBF729F953EC3B
:10542000182BFBF79DF9CDE906010CE09DED060B6D
:10543000032453EC102B9FED580B51EC100BFBF792
:105440008FF9CDE906019DED060B53EC102B51ECC5
:10545000100BFBF713F941EC180B53EC182BFBF76F
:105460000DF941EC190B4E480621B0EE490AF0EE59
:10547000690A784401F0A4FB53EC182B51EC100B93
:10548000FBF7FCF841EC180B4648B0EE490AF0EE89
:10549000690A0521784401F093FB53EC192B51EC78
:1054A000100BFBF7EBF841EC100B51EC180B53EC25
:1054B000102B002C0EDAFBF73AF89DED061B53EC8F
:1054C000112BFBF7DBF89DED061B53EC112BFBF7C3
:1054D000D2F835E0FBF72BF89DED061B53EC112BB2
:1054E000FBF7CCF841EC100B2F48784400EBC400DC
:1054F00090ED001B51EC100B53EC112BFBF7B8F89F
:105500009DED061B53EC112BFBF7B2F841EC100B91
:105510002648784400EBC40090ED001B51EC100BC2
:1055200053EC112BFBF7A7F841EC100B002DA2BF99
:10553000BDEC068B02B070BD51EC100B81F0004148
:1055400041EC100B01E70000000010440000F07F68
:10555000182D4454FB21F93F182D4454FB21F9BF69
:105560000000DC3F0000203E0000F33F0000000090
:10557000000000000000F03F0000E63F00000000D7
:105580000000000000000040008003400000000018
:10559000000000000000F83F000000000000F0BF25
:1055A0006298000018980000A29700005A97000027
:1055B00070B56B4E2DED040B2DED028B82B0DDF836
:1055C0001CC0DDE905235C422CF000411C4341EA8C
:1055D000D474049D22F00040B44205D86C422C43A0
:1055E00040EAD474B4420BD99DED061B9DED040B2B
:1055F00002B0BDEC028B04B0BDE8704001F016BCF7
:10560000ACF14054A4F17F641C430BD0022404EAA3
:10561000AC7444EAD27405439FED538B9FED542B39
:1056200007D015E09DED040B51EC100B02F0C2F811
:1056300042E0002C11BF012C9DED040B02B0BDEC2B
:10564000028B04BF04B070BD022C38D0032C3BD0B9
:105650000B439FED491B9FED4A0B0AD0B14218D175
:10566000B04209D121F0804120F08040079105909F
:105670000FE0002A15DA10E0434B7B44002C08BFF2
:1056800093ED000B0DD0012C10D0022C17D0032C61
:105690001AD0B0421DD1002A03DAB0EE410AF0EE72
:1056A000610A02B0BDEC028B04B070BD93ED000B3B
:1056B00051EC100B81F0004141EC100BF1E7B0EE22
:1056C000480AF0EE680AECE7B0EE420AF0EE620A31
:1056D000E7E7401A00153C28C8BF8DED000B19DC28
:1056E000BCF1000FBEBF10F13C0F9FED290B8DEDFB
:1056F000000B0FDB9DED060B53EC102B9DED040B07
:1057000051EC100BFBF72CF802F0D0FF02F052F82E
:10571000CDE90001002C08BF9DED000BC1D0012C8C
:1057200010D0022C9FED1C0B53EC102B9DED000BA9
:1057300051EC100B0DD0FAF79BFF53EC182BFAF736
:1057400097FFB9E7019880F0004001909DED000BB4
:10575000A7E7FAF78DFF53EC182BFAF78CFFABE7AE
:105760000000F07F00000000182D4454FB21094088
:10577000182D4454FB2109C0182D4454FB21F9BFB6
:10578000182D4454FB21F93FBA9600000000000098
:105790000000000000000000075C143326A6A13CB6
:1057A00010B52F499FED2C1B2DED020B84B00598F1
:1057B00020F000408842D8BF9DED040B2DDD294923
:1057C000884209D1049840B94FF0010001F078FBFC
:1057D00001F036FB06B010BD05DB9DED040B01F0BA
:1057E0001BFB06B010BD68469DED040B00F014FFD6
:1057F00010F0030004BF9DED021B9DED000B0CD0CB
:1058000001280ED09DED021B9DED000B022817D044
:10581000012001F051FA06B010BD01F019F906B0EF
:1058200010BD9DED021B9DED000B012001F044FA1F
:1058300051EC100B81F0004106B041EC100B10BD93
:1058400001F006F951EC100B81F0004106B041EC7B
:10585000100B10BD00000000000000000000000060
:10586000FB21E93F0000F07F2DED020B019820F0B5
:10587000004001909DED000B02B070470000000059
:105880002DE9F04D2DED040B2DED0E8B96B0DDE9DD
:105890002550279CDDF890A025F0004624F0004814
:1058A000BAF1000F14BF0121002101EB4502FC49B0
:1058B00053184A1093422AD3002814BF012300230F
:1058C00003EB44030B44F7498B4220D358EA000111
:1058D0009FEDF59B76D0DFF8D8B35D4503D1BAF1E3
:1058E000000F05D188E0BAF1000F08BF002100D0F9
:1058F000012101EB450111F5001F08D8002814BF54
:105900000121002101EB440111F5001F0BD99DED90
:10591000261B9DED240B16B0BDEC0E8B04B0BDE82C
:10592000F04D01F083BA0027002DBCBFE149884546
:1059300021DAE1498845A8BF02271CDAC3451ADCF1
:10594000DE4901EB2851142908DDC1F1340220FAA7
:1059500002F101FA02F282420DD108E058B9C1F118
:10596000140228FA02F101FA02F2424503D101F0D1
:105970000101C1F1020756EA0A0124D1002C22DA02
:10598000002D18BF022F01D0012F0AD0022001F0F4
:1059900097FA16B0BDEC0E8B04B0BDE8F04D01F0E7
:1059A00023BA022001F08CFA01F01EFA51EC100B20
:1059B00081F0004141EC100B16B0BDEC0E8B04B031
:1059C000BDE8F08D18E09FEDBEAB9FEDBF8B0028CA
:1059D00071D1B848804522D105F1804010F5801082
:1059E00008BFBAF1000F07D0B3450ADC002CA8BFEE
:1059F0009DED260BE0DA0DE0B0EE490AF0EE690A03
:105A0000DAE7002C06DA9DED260B51EC100B81F045
:105A100000416FE0AE48784490ED000BCCE7D845EC
:105A20004DD1002C48DA2EB186423AD1BAF1000F9E
:105A300042D126E0BAF1000F13D0022001F040FA63
:105A400001F00EFA8DED020B9DED240B8DED000B98
:105A500010EE900A039961F31E0003909DED020B76
:105A6000AAE78DED02AB9DED240B1AEE901A10EE15
:105A7000900A8DED000B61F31E0003909DED020B6B
:105A80009AE78DED028B9DED240B18EE901A10EE27
:105A9000900A8DED000B61F31E0003909DED020B4B
:105AA0008AE709DA9DED240B51EC190B53EC102B0E
:105AB000FAF756FE1EE020E09DED240B7CE78642BF
:105AC0001BDAB4F1804F0DD0A4F10050B0F1FF50BB
:105AD00013D1002D11DB9DED240B51EC100B06F0C2
